{
  "contractName": "TestEthers",
  "abi": [
    {
      "anonymous": false,
      "inputs": [
        {
          "indexed": true,
          "internalType": "uint256",
          "name": "rollno",
          "type": "uint256"
        },
        {
          "indexed": true,
          "internalType": "string",
          "name": "name",
          "type": "string"
        },
        {
          "indexed": true,
          "internalType": "string",
          "name": "class",
          "type": "string"
        }
      ],
      "name": "StudentAdded",
      "type": "event"
    },
    {
      "inputs": [
        {
          "internalType": "uint256",
          "name": "",
          "type": "uint256"
        }
      ],
      "name": "students",
      "outputs": [
        {
          "internalType": "uint256",
          "name": "rollno",
          "type": "uint256"
        },
        {
          "internalType": "string",
          "name": "name",
          "type": "string"
        },
        {
          "internalType": "string",
          "name": "class",
          "type": "string"
        }
      ],
      "stateMutability": "view",
      "type": "function"
    },
    {
      "inputs": [
        {
          "internalType": "uint256",
          "name": "_rollno",
          "type": "uint256"
        },
        {
          "internalType": "string",
          "name": "_name",
          "type": "string"
        },
        {
          "internalType": "string",
          "name": "_class",
          "type": "string"
        }
      ],
      "name": "addStudent",
      "outputs": [],
      "stateMutability": "nonpayable",
      "type": "function"
    },
    {
      "inputs": [
        {
          "internalType": "uint256",
          "name": "rollno",
          "type": "uint256"
        }
      ],
      "name": "getStudentName",
      "outputs": [
        {
          "internalType": "string",
          "name": "",
          "type": "string"
        }
      ],
      "stateMutability": "view",
      "type": "function"
    }
  ],
  "bytecode": "0x608060405234801561001057600080fd5b50610756806100206000396000f3fe608060405234801561001057600080fd5b506004361061005e576000357c01000000000000000000000000000000000000000000000000000000009004806306ead22e14610063578063473e99141461017d5780639ac4387614610255575b600080fd5b61008f6004803603602081101561007957600080fd5b81019080803590602001909291905050506102fc565b604051808481526020018060200180602001838103835285818151815260200191508051906020019080838360005b838110156100d95780820151818401526020810190506100be565b50505050905090810190601f1680156101065780820380516001836020036101000a031916815260200191505b50838103825284818151815260200191508051906020019080838360005b8381101561013f578082015181840152602081019050610124565b50505050905090810190601f16801561016c5780820380516001836020036101000a031916815260200191505b509550505050505060405180910390f35b6102536004803603606081101561019357600080fd5b8101908080359060200190929190803590602001906401000000008111156101ba57600080fd5b8201836020820111156101cc57600080fd5b803590602001918460018302840111640100000000831117156101ee57600080fd5b90919293919293908035906020019064010000000081111561020f57600080fd5b82018360208201111561022157600080fd5b8035906020019184600183028401116401000000008311171561024357600080fd5b9091929391929390505050610456565b005b6102816004803603602081101561026b57600080fd5b81019080803590602001909291905050506105c4565b6040518080602001828103825283818151815260200191508051906020019080838360005b838110156102c15780820151818401526020810190506102a6565b50505050905090810190601f1680156102ee5780820380516001836020036101000a031916815260200191505b509250505060405180910390f35b6000602052806000526040600020600091509050806000015490806001018054600181600116156101000203166002900480601f0160208091040260200160405190810160405280929190818152602001828054600181600116156101000203166002900480156103ae5780601f10610383576101008083540402835291602001916103ae565b820191906000526020600020905b81548152906001019060200180831161039157829003601f168201915b505050505090806002018054600181600116156101000203166002900480601f01602080910402602001604051908101604052809291908181526020018280546001816001161561010002031660029004801561044c5780601f106104215761010080835404028352916020019161044c565b820191906000526020600020905b81548152906001019060200180831161042f57829003601f168201915b5050505050905083565b604051806060016040528086815260200185858080601f016020809104026020016040519081016040528093929190818152602001838380828437600081840152601f19601f82011690508083019250505050505050815260200183838080601f016020809104026020016040519081016040528093929190818152602001838380828437600081840152601f19601f8201169050808301925050505050505081525060008087815260200190815260200160002060008201518160000155602082015181600101908051906020019061053192919061067b565b50604082015181600201908051906020019061054e92919061067b565b509050508181604051808383808284378083019250505092505050604051809103902084846040518083838082843780830192505050925050506040518091039020867f8f2389bb456b93c3e9fe508739c041611b37c490e217f5aa157162a700ec4df760405160405180910390a45050505050565b60606000808381526020019081526020016000206001018054600181600116156101000203166002900480601f01602080910402602001604051908101604052809291908181526020018280546001816001161561010002031660029004801561066f5780601f106106445761010080835404028352916020019161066f565b820191906000526020600020905b81548152906001019060200180831161065257829003601f168201915b50505050509050919050565b828054600181600116156101000203166002900490600052602060002090601f016020900481019282601f106106bc57805160ff19168380011785556106ea565b828001600101855582156106ea579182015b828111156106e95782518255916020019190600101906106ce565b5b5090506106f791906106fb565b5090565b61071d91905b80821115610719576000816000905550600101610701565b5090565b9056fea2646970667358221220afaa26f266782664666194a673e63b656e069035fcf56bb8ce57db42e88c215d64736f6c63430006000033",
  "source": "pragma solidity 0.6.0;\r\n\r\ncontract TestEthers {\r\n    struct Student {\r\n        uint256 rollno;\r\n        string name;\r\n        string class;\r\n    }\r\n    mapping(uint256 => Student) public students;\r\n    event StudentAdded(\r\n        uint256 indexed rollno,\r\n        string indexed name,\r\n        string indexed class\r\n    );\r\n\r\n    function addStudent(\r\n        uint256 _rollno,\r\n        string calldata _name,\r\n        string calldata _class\r\n    ) external {\r\n        students[_rollno] = Student(_rollno, _name, _class);\r\n        emit StudentAdded(_rollno, _name, _class);\r\n    }\r\n\r\n    function getStudentName(uint256 rollno)\r\n        public\r\n        view\r\n        returns (string memory)\r\n    {\r\n        return students[rollno].name;\r\n    }\r\n}\r\n",
  "sourcePath": "E:\\ETHERS_CODEBASE\\contracts\\TestEthers.sol",
  "compiler": {
    "name": "solc",
    "version": "0.6.0+commit.26b70077.Emscripten.clang"
  },
  "schemaVersion": "3.1.0",
  "updatedAt": "2020-07-01T07:41:28.091Z",
  "devdoc": {
    "methods": {}
  },
  "userdoc": {
    "methods": {}
  }
}